:020000040800F2
:10000000981C002051090008590900085B090008E4
:100010005D0900085F090008610900080000000090
:10002000000000000000000000000000630900085C
:100030006509000800000000670900086909000858
:100040006B0900086B0900086B0900086B090008C0
:100050006B0900086B0900086B0900086B090008B0
:100060006B0900086B0900086B0900086B090008A0
:100070006B0900086B0900086B0900086B09000890
:100080006B0900086B0900086B0900086B09000880
:100090006B0900086B0900086B0900086B09000870
:1000A0006B0900086B0900086B0900086B09000860
:1000B000C10D00086B0900086B0900086B090008F6
:1000C0006B0900086B0900086B0900086B09000840
:1000D0006B0900086B0900086B0900086B09000830
:1000E0006B0900086B0900086B0900086B09000820
:1000F0006B0900086B0900086B0900086B09000810
:100100006B0900086B0900086B0900086B090008FF
:100110006B0900086B0900086B0900086B090008EF
:100120006B0900086B0900086B0900086B090008DF
:10013000DFF80CD002F00CFC004800477D090008F5
:10014000981C00201B4901431B4A1160704770B581
:10015000002100230F22C4780CB3174C246804F448
:10016000E064C4F5E064210AC1F10403CA404478A4
:1001700004FA03F184781440214309010F4C0678F6
:10018000A155047804F01F050124AC4005786D11D9
:100190004FF0E02606EB8505C5F8004109E004783C
:1001A00004F01F050124AC40054D0678761145F892
:1001B000264070BD0000FA050CED00E000E400E010
:1001C00080E100E02DE9F0410246002500260020F4
:1001D00000230024002791F803C00CF00F0591F8CC
:1001E00003C01CF0100F03D091F802C04CEA0505C3
:1001F00091F800C0BCF1000F31D0146800202BE052
:100200004FF0010C0CFA00F3B1F800C00CEA030641
:100210009E4220D183004FF00F0C0CFA03F7BC4331
:1002200005FA03FC4CEA040491F803C0BCF1280F62
:1002300006D14FF0010C0CFA00FCC2F814C00AE021
:1002400091F803C0BCF1480F05D14FF0010C0CFA36
:1002500000FCC2F810C0401C0828D1D31460B1F8CB
:1002600000C0BCF1FF0F34DD546800202EE000F127
:10027000080C4FF0010808FA0CF3B1F800C00CEAC2
:1002800003069E4221D183004FF00F0C0CFA03F7B6
:10029000BC4305FA03FC4CEA040491F803C0BCF12A
:1002A000280F05D100F1080C08FA0CF8C2F81480E8
:1002B00091F803C0BCF1480F07D100F1080C4FF0D2
:1002C000010808FA0CF8C2F81080401C0828CED3A8
:1002D0005460BDE8F08101617047416170470000E2
:1002E00010B501460022002300204A11012A02D144
:1002F000594C236806E0022A02D1574C236A01E0D8
:10030000554C636A01F01F02012494401C4201D045
:10031000012000E0002010BD0021504A11704E4A1B
:1003200082F82010012802D0042808D103E001211E
:100330004A4A117004E00521484A117000E000BFEC
:1003400000BF70474449096A0143434A116270473C
:1003500043490860704730B5002100220024002383
:100360003D4D6D6805F00C0121B1042905D0082927
:1003700023D105E03B4D056022E03A4D05601FE0CA
:10038000354D6D6805F47012334D6D6805F4803499
:10039000022505EB92421CB9334D554305600BE035
:1003A0002D4D6D6815F4003F03D02F4D554305606A
:1003B00002E02C4D5543056002E02A4D056000BF68
:1003C00000BF254D6D6805F0F0010909274D6B5CF4
:1003D0000568DD404560204D6D6805F4E061090A5F
:1003E000224D6B5C4568DD4085601B4D6D6805F4F2
:1003F0006051C90A1D4D6B5C4568DD40C560164DF6
:100400006D6805F44041890B194D6B5CC568B5FBFF
:10041000F3F5056130BD29B10F4A926902430E4BD5
:100420009A6104E00C4A926982430B4B9A617047CF
:1004300029B1094AD2690243074BDA6104E0064A4E
:10044000D2698243044BDA6170470348406A40F046
:10045000807001494862704700100240201002403D
:100460003C04424200127A0000093D0000000020D6
:1004700010000020F0B50C46154600220021002691
:10048000078C4EF6FF7C07EA0C070784828B018CF1
:100490004FF6FF7707EA043640F6FF473A404FF63B
:1004A000FF7707EA05273A434FF6FF7707EA033756
:1004B0003A43804FB8420ED07F4FB8420BD0B0F1D4
:1004C000804F08D07D4FB84205D07D4FB84202D052
:1004D0007C4FB84206D14DF6FF77394046F480573D
:1004E000394305E047F6FF57394044F48057394314
:1004F00082830184F0BDF0B50C4615460022002130
:100500000026078C4FF6FF6C07EA0C070784828BE6
:10051000018C4FF6FF7707EA04264FF60C773A4036
:100520004FF6FF7707EA03172F433A43614FB8426C
:100530000ED0614FB8420BD0B0F1804F08D05F4F62
:10054000B84205D05E4FB84202D05E4FB84206D1E5
:100550004FF6FF57394046F48077394305E04FF2B4
:10056000FF57394044F48077394382830184F0BDDA
:10057000F0B50C461546002200210026078C4FF6E8
:10058000EF7C07EA0C070784028B018C4FF6FF779C
:1005900007EA041640F6FF473A404FF6FF7707EAAE
:1005A00003373A434FF6FF7707EA05273A43414FAF
:1005B000B8420ED0404FB8420BD0B0F1804F08D0B7
:1005C0003E4FB84205D03E4FB84202D03D4FB842F0
:1005D00006D14FF6DF77394046F01007394305E082
:1005E0004FF65F77394044F01007394302830184A6
:1005F000F0BDF0B50C46154600220021068C4FF6E2
:10060000FE773E400684028B018C4FF60C7632401A
:100610007E1C06EA03162E433243264EB0420ED00D
:10062000254EB0420BD0B0F1804F08D0234EB042DF
:1006300005D0234EB04202D0224EB04206D14FF632
:10064000FD76314044F00106314305E04FF6F57682
:10065000314044F00106314302830184F0BD21B1F1
:10066000028842F00102028004E002884FF6FE7325
:100670001A40028070471AB183890B43838102E0DC
:1006800083898B43838170478184704730B50246EC
:10069000002000230024158A05EA0103958905EA54
:1006A000010413B10CB1012000E0002030BDCA43A9
:1006B00002827047002C01400034014000040040D9
:1006C00000080040000C0040C1F30802828070471F
:1006D00002460020B1F5007F00D100BF13880B4215
:1006E00001D0012000E00020704710B500220288F0
:1006F00002F441520B884C8823438C882343CC88D6
:1007000023430C8923434C8923438C892343CC897D
:1007100023431A430280838B4FF2FF742340838369
:100720000B8A038210BD21B1028842F04002028090
:1007300004E002884FF6BF731A4002807047000041
:1007400029B1294A12880243274B1A8004E0264A1D
:1007500012888243244B1A8070472348001D00886A
:1007600040F010002049091D088070471E48001DF8
:1007700000884FF6EF7108401B49091D088070473B
:1007800000B50246FFF7E9FF100C17491831088041
:10079000091D0A80FFF7EAFF00BD00B50246FFF71A
:1007A000DCFFC2F30340104908310880091D0A80AC
:1007B000FFF7DCFF00BD00BF0B48001D008810F0F4
:1007C000200FF9D070470848001D00884FF6F771D8
:1007D00008400549091D088000BF0348001D008826
:1007E00010F0080FF9D07047002800404AF6AA2000
:1007F0000149086070470000003000400022054AAF
:1008000002441160704701460022024A0A441088DF
:1008100070470000006C004001490862704700000A
:1008200000000E4200210020444A126842F4803247
:10083000424B1A6000BF414A126802F40030491C62
:1008400010B9B1F5A06FF6D13C4A126812F4003F1E
:1008500001D0012000E00020012842D1384A12686E
:1008600042F01002364B1A601A46126822F0030258
:100870001A601A46126842F002021A602F4A526841
:100880002E4B5A601A4652685A601A46526842F411
:1008900080625A601A46526822F47C125A601A46E4
:1008A000526842F4E8125A601A46126842F08072A6
:1008B0001A6000BF214A126812F0007FFAD01F4A66
:1008C000526822F003021D4B5A601A46526842F0E9
:1008D00002025A6000BF194A526802F00C02082A4C
:1008E000F9D1704710B5FFF79DFF10BD10B5134843
:1008F000006840F00100114908600846406811494D
:1009000008400E494860084600680F4908400B49F6
:1009100008600846006820F48020086008464068A7
:1009200020F4FE0048604FF41F008860FFF7DAFFF4
:100930004FF000600549086010BD00000010024043
:10094000002002400000FFF8FFFFF6FE08ED00E087
:100950000648804706480047FEE7FEE7FEE7FEE759
:10096000FEE7FEE7FEE7FEE7FEE7FEE7ED0800082C
:100970003101000810B5FFF739FF10BD86B0002522
:1009800000F0E6F8012145F61D20FFF744FD0121A6
:100990003C48FFF74DFD00F035F901F070FD01F026
:1009A000F2FC00F07CFA00F035FA00F0D9FA00F021
:1009B000FBFA01F0C5FD0021AE2000F060FB4FF412
:1009C0000060314908600021AF2000F058FB00F0C2
:1009D0009BFB18E001F0F2FD054629462BA001F033
:1009E000F7FF2CA282213C2001F0ABFC4FF4FA70FF
:1009F00000F0D8F82DA282213C2001F0A2FC4FF497
:100A0000FA7000F0CFF801F0D9FDA0F56F4114396C
:100A1000E0D12CA282213C2001F093FC2DA2962152
:100A20003C2001F08EFC2BE000F02AFA0446012C59
:100A30000FD12EA20021084601F083FC13224FF4AF
:100A40007A71304801F075FE2FA21021002001F0CC
:100A500078FC022C14D132A20021084601F071FC6E
:100A600013224FF47A7101A801F0C9FD32A21021BE
:100A7000002001F066FC01AA2021002001F061FCA9
:100A8000D2E70000014002001008014049443A2525
:100A90006400000057323558313620436865636B77
:100AA000204661696C656421000000002020205010
:100AB0006C6561736520436865636B21202020208D
:100AC0000000000057323558313620526561647994
:100AD000210000004B4559303A5772697465204B2C
:100AE0004559323A526561640000000053746172E6
:100AF00074205772697465205732355831362E2E5E
:100B00002E2E0000642B00085732355831362057FE
:100B1000726974652046696E6973686564210000B6
:100B200053746172742052656164205732355831B4
:100B3000362E2E2E2E2000005468652044617461EC
:100B4000205265616465642049733A2020000000EA
:100B500030B585B06846FFF7FEFB4821B1F1807FD4
:100B600000D31DE021F07F40401E4FF0E022506195
:100B700050170F22002807DA13071D0E1F4B00F035
:100B80000F04241F1D5503E013071C0E1C4B1C549F
:100B900000BF00204FF0E02290610520106100BFEF
:100BA00005B030BD70B503460020002100220024AE
:100BB0004FF0E0256C69A96916E04FF0E025A869BF
:100BC000884202D20D1A2A4402E0251A0D442A4412
:100BD00003EBC305ED0005EB4506C6EBC515B2EB0F
:100BE000C50F00D301E00146E7E700BF70BD10B5B7
:100BF00004462046FFF7D6FF10BD000018ED00E0C8
:100C000000E400E008B54FF4E060FFF79BFA252010
:100C10008DF8000000208DF8020001208DF80300FF
:100C20006846FFF794FA26208DF8000000208DF822
:100C3000020001208DF803006846FFF788FA1C20A7
:100C40008DF800000A208DF8010001208DF80200C7
:100C50008DF803006846FFF77AFA08BD70B50446C0
:100C60000D46E1B20548FFF72FFD00BF40210348C4
:100C7000FFF72EFD0028F9D0204670BD0038014056
:100C800070B50646604C00250AE000202070FF2069
:100C9000607000206080A080A0600C34681CC5B229
:100CA000032DF2DB01205949087000218007FFF76E
:100CB000EBFC012211469007FFF7DDFC01218807BC
:100CC000FFF7CDFC70BD2DE9F04705460E461746EF
:100CD000994617B10EB1FF2D02D10320BDE8F08770
:100CE000002201218807FFF7C6FC474C4FF000089F
:100CF00023E06078A84206D1012211469007FFF751
:100D0000BAFC0420EAE7A06890B94048007810B91E
:100D10004846FFF7B5FF0020207065706680A08010
:100D2000A760012211469007FFF7A5FC0020D5E738
:100D30000C3408F101001FFA80F8B8F1030FD8DB7A
:100D4000012211469007FFF796FC0120C6E710B577
:100D5000002201218807FFF78EFC00214FF0804020
:100D6000FFF77DFC00202949087010BD2DE9F041F6
:100D700005460027002201218807FFF77CFC224C52
:100D8000002611E06078A84207D100202070FF20E3
:100D9000607000206080A080A060A06808B1781C0E
:100DA00087B20C34701C86B2032EEBDB0122114695
:100DB0009007FFF760FC0FB9FFF7C9FFBDE8F081AE
:100DC00070B501218807FFF761FCC0B101218807D8
:100DD000FFF76DFC0C4C00250FE0A06850B1A08817
:100DE000401CA080A0886188884203DBA0688047FF
:100DF0000020A0800C34681CC5B2032DEDDB70BD53
:100E000001200349087070473C0400207100002055
:100E100033040020FE202F490870704710B52E487B
:100E2000806810F0020F02D101202A4908702A4878
:100E3000806810F4005F02D102202649087025481E
:100E40000078012802D0022818D10BE03220FFF7E9
:100E5000CEFE2148806810F4807F02D101201D4918
:100E600008700BE03220FFF7C2FE1B48806810F4C8
:100E7000007F02D102201749087000BF00BF10BDDB
:100E800010B514480078FF2801D0FFF7C7FF1148BC
:100E90000478204610BDFF200E490870704708B541
:100EA0000220ADF8000004208DF8030003208DF827
:100EB000020069460848FFF785F94FF40050ADF885
:100EC000000004208DF8030069460348FFF77AF913
:100ED00008BD000072000020001001402DE9F05F05
:100EE0000746884691461C46DDE90A5600BF00BF0A
:100EF000FFF740FD4FEA082A4AEA090A04F00F000A
:100F0000210901EB810100EB4100C4B205F00F00A3
:100F1000290901EB810100EB4100C5B206F00F0089
:100F2000310901EB810100EB4100C6B251460C20B2
:100F3000FFF764FC39460820FFF760FCFFF71AFD55
:100F40004FF461606043C5EB051100EB810000EBDD
:100F5000060B5846FFF714FCFFF70CFDBDE8F09FA9
:100F600010B501214FF0C050FFF762FA0120FFF7E2
:100F700053FC0120FFF7D0F900BF4120FFF7B0F983
:100F80000028FAD04FF48070FFF7DCF90120FFF75A
:100F9000DFF9FFF718FCFFF70EFC47F6FF70FFF7CD
:100FA000FCFBFFF708FC10BD1CB50420FFF72BFC71
:100FB000A0F52A41AA3911D0FFF7D2FF4AF6AA219B
:100FC0000420FFF71BFC2320352115231022CDE937
:100FD000001011461220FFF781FF06E00120FFF705
:100FE0001BFCFFF7F0FBFFF7E6FB01210846FFF7CC
:100FF000A7FBFFF7E0FBFFF728FA1CBD0146CA1765
:1010000001EB92729210B1EB820201D00020704786
:10101000642091FBF0F200FB121008B10120F6E70A
:101020004FF4C87091FBF0F200FB121008B90120D8
:10103000EDE70020EBE700000246002105E0491C37
:10104000B1F5FA6F01D900207047FA48008810F016
:10105000020FF4D0F748001D0280002105E0491C72
:10106000B1F5FA6F01D90020EEE7F248008810F0E0
:10107000010FF4D0EF48001D0088C0B2E4E770B55E
:1010800005460C462CB14FF48051EB48FFF723F98D
:1010900004E04FF48051E848FFF71FF94FF4007166
:1010A000E548FFF71AF92846FFF7C6FF4FF400712D
:1010B000E148FFF710F94FF48051DF48FFF70BF9D3
:1010C00070BD70B500241CE004F1B001C8B200216D
:1010D000FFF7D5FF00210220FFF7D1FF00211020EC
:1010E000FFF7CDFF002508E0D44901EBC501085DFD
:1010F0000121FFF7C4FF681CC5B2802DF4DB601C22
:10110000C4B2082CE0DB70BD70B500240CE00025F3
:1011100006E00020C94901EBC5010855681CC5B2AD
:10112000802DF6DB601CC4B2082CF0DBFFF7C9FF92
:1011300070BD70B505460C462646E11704EB5171AB
:10114000C910C1F1B701C8B20021FFF798FF102103
:1011500041EA15100021FFF792FF05F00F00002172
:10116000FFF78DFF70BD2DE9F04705460C46174689
:101170004FF0000921462846FFF7DBFF7F2D01DCF9
:10118000402C01DDBDE8F0872046E11704EB5171EA
:10119000C910C1F10701CEB2E11704EB5171C910BA
:1011A000A4EBC10101F0FF08C8F10701012088404C
:1011B00000F0FF0957B1A14800EBC500805D40EA8F
:1011C00009009E4901EBC501885509E09B4800EBE9
:1011D000C500805D20EA0900984901EBC5018855EA
:1011E000964901EBC501885D0121FFF748FF00BF6B
:1011F000C8E72DE9FF4F83B00D4617469846AB462A
:1012000038788DF8080078788DF8090099200190D9
:10121000002417E004EB0410894901EB400090F82A
:1012200020009DF8081088420BD104EB041084497B
:1012300001EB400090F821009DF80910884200D190
:1012400003E0641C01988442E4D300BF0198844207
:101250003BD2002637E004EB0410794901EB400053
:1012600010F806904FF0000A27E019F0800F05D023
:10127000424629460398FFF776FF0AE0B8F1000FCF
:1012800001D1012000E00020024629460398FFF723
:101290006AFF4FEA49604FEA1069681CC5B2A5EBC6
:1012A0000B00102805D15D460398401CC0B2039086
:1012B00006E00AF1010000F0FF0ABAF1080FD4DBE2
:1012C00000BF701CC6B2202EC5DB07B0BDE8F08F92
:1012D0002DE9F05F80460C4615461E46A346A5F153
:1012E0002000C5B200273EE00C2E07D105EB4500DB
:1012F000544901EB800010F8079004E0524800EBDD
:10130000051010F807904FF0000A26E019F0800F42
:1013100005D0214640460A9AFFF725FF09E00A98C2
:1013200008B9012000E00020024621464046FFF7B0
:101330001AFF4FEA49604FEA1069601CC4B2A4EB7F
:101340000B00B04205D15C4608F1010000F0FF0837
:1013500006E00AF1010000F0FF0ABAF1080FD5DB40
:1013600000BF781CC7B2B742BEDBBDE8F09F2DE9D5
:10137000F84F07460D46144698464FF000093CE0EA
:10138000207880280CDACDF80080227810233946A6
:101390002846FFF79DFF641C05F10800C5B228E050
:1013A0002078FF2816D1641C207800F0F006A02ECB
:1013B00006D1207800F00F0A05F11000C5B207E051
:1013C000E02E05D1207800F00F0A05F11000C5B21B
:1013D000641C0EE020784E280ADB4346224639463C
:1013E0002846FFF706FFA41C05F11000C5B200E077
:1013F000641C09F1010000F0FF09207810B1B9F177
:10140000140FBDDBBDE8F88F70B504460D461646D7
:101410000123324621462846FFF7A9FF70BD70B56B
:1014200004460D4616460023324621462846FFF75D
:101430009EFF70BD08380040000C01408804002069
:10144000FC370008782B0008EC2F000870B5054623
:10145000012428E0FE480078844211D104EB4403C3
:1014600005EB03139A1C04EB440305EB03135978B3
:1014700004EB440305EB03131878FFF7D0FF10E0EB
:1014800004EB440305EB03139A1C04EB440305EB44
:101490000313597804EB440305EB03131878FFF7A3
:1014A000B3FF601CC4B26878A042D3DA70BD2DE9E6
:1014B000F04700250026A946A846E6480078E449FA
:1014C00008704FF4FA70FFF76DFBFFF71DFEE1485F
:1014D000FFF7BCFFB8E0FFF79DFCFFF7D1FC044627
:1014E000DD480078012800D1AFE0FE2C0FD108F1D3
:1014F00001086420FFF756FBD8480068804506DBEA
:101500000021AE20FFF7BBFD01254FF00008012DA3
:1015100011D1042C05D0012C03D0032C01D0022CB6
:1015200009D10021AF20FFF7AAFD00254FF47A7002
:10153000FFF738FBFE2425BB022C22D14FF0000818
:10154000C4480078C2490978884205DAC048007862
:10155000401EBF49087009E0BE480078BC490978C0
:10156000884203D1BB484078B9490870FFF7CCFDE9
:10157000B848FFF76BFF4FF4FA70FFF713FBFFF764
:1015800049FCF5B9032C1CD14FF00008B148407854
:10159000AF490978884205DDAD480078401CAC4968
:1015A000087003E0AB480078A9490870FFF7ACFD6C
:1015B000A848FFF74BFFFFF72DFC4FF4FA70FFF739
:1015C000F1FADDB9012C19D14FF00008FFF79CFDAD
:1015D0009F480778007800EB40009E4A02EB00101D
:1015E000C16A002088479A4807709A48FFF72EFF83
:1015F0004FF4FA70FFF7D6FAFFF70CFC45B9042C4C
:1016000006D14FF00008701CC6B26420FFF7CAFA7A
:101610001E2E07DB00268E48077807708D48FFF7DF
:1016200015FF0DE0042C0BD0002E09DD142E07DA77
:10163000FFF76AFDFF208A490870FFF72CFC04E0E1
:1016400009F1010000F0FF0945E700BFFF208449D0
:101650000870BDE8F08710B5FFF729FF10BD10B581
:1016600000218D20FFF70BFD00211420FFF707FD5F
:101670000021AF20FFF703FD10BD10B500218D2024
:10168000FFF7FDFC00211020FFF7F9FC0021AE2040
:10169000FFF7F5FC10BD2DE9F041002600270025DD
:1016A000704800786A4908706420FFF77BFAFFF7FA
:1016B0002BFD6C48FFF7CAFE81E0FFF7ABFBFFF79D
:1016C000DFFB044664480078012800D178E0FE2C56
:1016D0000BD16D1C6420FFF765FA604800688542F5
:1016E00003DBFFF7CAFF01260025012E0FD1042CD2
:1016F00005D0012C03D0032C01D0022C07D1FFF719
:10170000AEFF00264FF47A70FFF74CFAFE24022C4D
:101710001ED100250027534840784D49097888425A
:1017200005DD4B480078401C4949087009E04D48E8
:10173000407847490978884203D14A4800784449AB
:101740000870FFF7E1FC4748FFF780FEFFF762FBF8
:10175000032C18D100250027424840783C490978DD
:10176000884205DD3A480078401C3949087003E09A
:101770003C48007836490870FFF7C6FC3948FFF747
:1017800065FEFFF747FB012C19D100250027FFF765
:10179000BBFC2F480078032800D111E02C480078CA
:1017A00000EB40002F4A02EB0010C16A002088477E
:1017B00029480078012800D102E0FFF72BFB7CE7E5
:1017C00000BFFF2026490870BDE8F0812DE9F041F7
:1017D00000260025A846244800781D4908704FF4CB
:1017E000FA70FFF7DFF9FFF78FFC1F48FFF72EFEB7
:1017F000C5E0FFF70FFBFFF743FB044616480078F0
:10180000012800D1BCE0FE2C0DD108F101086420B4
:10181000FFF7C8F911480068804504DBFFF72DFF8A
:1018200001264FF00008012E0FD1042C05D0012C09
:1018300003D0032C01D0022C07D1FFF710FF0026A4
:101840004FF47A70FFF7AEF9FE24022C32D10DE08E
:1018500020040020704D000878000020B80000200F
:101860002104002030510008504F00084FF00008BC
:101870000025FE484078FE490978884205DDFC488D
:101880000078401CFA49087009E0F8484078F849A7
:101890000978884203D1F5480078F5490870FFF7C8
:1018A00033FCF248FFF7D2FDFFF7B4FA4FF4FA70B9
:1018B000FFF778F9032C1DD14FF000080025EB4805
:1018C0004078EB490978884205DDE9480078401CFA
:1018D000E749087003E0E5480078E5490870FFF73C
:1018E00013FCE248FFF7B2FDFFF794FA4FF4FA70E9
:1018F000FFF758F9012C1AD14FF000080025FFF727
:1019000003FCDB480778007800EB4000D74A02EB85
:101910000010C16A00208847D5480770FFF77AFA9F
:10192000D248FFF793FD4FF4FA70FFF73BF946B941
:10193000042C06D14FF00008681CC5B26420FFF7E4
:1019400031F91E2D0ADB0025C9480778FFF7A3FEF1
:10195000C7480770C548FFF779FD10E0042C0ED08A
:10196000002D0CDD142D0ADA4FF000080025FFF7DA
:10197000CBFBFF20BF490870FFF78DFA00E038E786
:1019800000BFFF20BB490870BDE8F08110B5FFF72C
:101990001DFF10BD2DE9F04100260025A846B648E0
:1019A0000078B34908706420FFF7FCF8FFF7ACFB40
:1019B000B148FFF74BFDAAE0FFF72CFAFFF760FAFA
:1019C0000446AE480078012800D1A1E0FE2C0DD1DC
:1019D00008F101086420FFF7E5F8A9480068804590
:1019E00004DBFFF74AFE01264FF00008012E0FD15D
:1019F000042C05D0012C03D0032C01D0022C07D1DC
:101A0000FFF72DFE00264FF47A70FFF7CBF8FE2487
:101A1000022C1FD14FF000080025974840789449C8
:101A20000978884205DD92480078401C904908708A
:101A300009E0914840788E490978884203D18E4860
:101A400000788B490870FFF75FFB8B48FFF7FEFCBF
:101A5000FFF7E0F9032C19D14FF000080025864864
:101A6000407883490978884205DD81480078401C28
:101A70007F49087003E0804800787D490870FFF7CF
:101A800043FB7D48FFF7E2FCFFF7C4F9012C16D1B8
:101A90004FF000080025FFF737FB754807780078FE
:101AA00000EB4000744A02EB0010C16A0020884736
:101AB0006F4807707048FFF7C9FCFFF7ABF946B9EC
:101AC000042C06D14FF00008681CC5B26420FFF753
:101AD00069F81E2D0ADB002565480778FFF7DBFD56
:101AE000634807706448FFF7B1FC10E0042C0ED087
:101AF000002D0CDD142D0ADA4FF000080025FFF749
:101B000003FBFF205B490870FFF7C5F900E053E7CE
:101B100000BFFF2057490870BDE8F08110B5FFF7FE
:101B200039FF10BD10B5FFF7B6FD10BD70B5044606
:101B30000D4616460123324629462046FFF717FC7C
:101B400070BD2DE9F04100260025A84600274D482C
:101B50000078474908706420FFF724F8FFF7D4FAAB
:101B60004848FFF773FC4DE1FFF754F9FFF788F998
:101B7000044642480078012800D144E1FE2C0BD1F4
:101B80007F1C6420FFF70EF83D480068874203DBA6
:101B9000FFF773FD01260027012E0FD1042C05D07D
:101BA000012C03D0032C01D0022C07D1FFF757FDE5
:101BB00000264FF47A70FEF7F5FFFE24022C39D18F
:101BC000002700252A48007800EB40002D4901EB52
:101BD00000108078401C2649097801EB4101294A10
:101BE00002EB011188702248007800EB400011469A
:101BF00001EB00108078392807DD30201C49097876
:101C000001EB410102EB011188701948007800EBEB
:101C100040001C4901EB0010817815480078401FF6
:101C2000194A1154FFF7F6F81648FFF70FFC642025
:101C3000FEF7B8FF032C4BD1002700250C48007895
:101C400000EB40000F4901EB00108078401E08496E
:101C5000097801EB41010B4A02EB0111887004483D
:101C6000007800EB4000114610E00000504F0008E3
:101C70002004002021040020D05600087800002015
:101C8000B800002040020020B100002001EB00104D
:101C90008078302807DA3920FE49097801EB4101C4
:101CA00002EB01118870FB48007800EB4000FA4914
:101CB00001EB00108178F7480078401FF74A115473
:101CC000FFF7A8F8F448FFF7C1FB6420FEF76AFFAE
:101CD000012C6FD100270025EF484078ED490978A5
:101CE00088420EDDEB480078401CEA490870FFF797
:101CF00091F8E948FFF7AAFB4FF47A70FEF752FF1C
:101D000058E0E5484078E3490978884252D1E449EF
:101D1000E24800F0EFFD48B3FFF7F6F9E1A2002139
:101D20001020FFF703FFE2A214211020FFF7FEFEB0
:101D3000E2A1DA4800F0ECFD3021D74880F8F2103B
:101D400080F8221180F8521180F8821140F6B830E4
:101D5000FEF728FFFFF7D8F9CF480078CD49087083
:101D6000CD48FFF773FBFFF755F823E0CC49CB488C
:101D700000F0C0FDF0B9FFF7C7F9D2A20021202082
:101D8000FFF7D4FED2A214211020FFF7CFFE64206B
:101D9000FEF72DFF4FF48070CF49086041F2883084
:101DA000FEF700FF4FF48070CB49091D0860FFF774
:101DB000ABF928E03EB9042C05D10027681CC5B258
:101DC0006420FEF7EFFE1E2D0CDB0025B14890F8D5
:101DD0000080FFF760FCAF4880F80080AE48FFF756
:101DE00035FB0FE0042C0DD0002D0BDD142D09DA8E
:101DF00000270025FFF788F9FF20B8490870FFF792
:101E00004AF800E0B0E600BFFF20B4490870BDE822
:101E1000F08110B5FFF795FE10BD10B5FFF72DFC52
:101E20000120AF49087010BD0146AE48405C7047C4
:101E30002DE9FC41074688461646002500240FE0A0
:101E4000315D0811FFF7F0FF0DF805006D1C315DE5
:101E500001F00F00FFF7E8FF0DF805006D1C641C92
:101E6000042CEDD301236A4641463846FFF77FFA3A
:101E7000BDE8FC8170B5002500269B4800788549A7
:101E80000870FFF741F99848FFF7E0FA00209749FA
:101E9000087042F6C953964A0A210120FEF713FF43
:101EA0000120FEF763FF73E0FEF7B4FFFEF7E8FFE3
:101EB0000446FE2C02D16420FEF799FE022C21D1AB
:101EC0008948007873490978884205DA71480078B2
:101ED000401E7049087009E0834800786D49097810
:101EE000884203D1804840786A490870FFF70CF9AE
:101EF0007D48FFF7ABFA7F4A50212020FFF798FF7B
:101F0000FEF788FF032C16D177484078614909789D
:101F1000884205DD5F480078401C5E49087003E098
:101F2000714800785B490870FFF7EEF86E48FFF7DC
:101F30008DFAFEF76FFF012C20D1FFF7E5F8554829
:101F40000078032810D16848FFF780FA002067491D
:101F5000087042F6C953664A0A210120FEF7B3FE13
:101F60000120FEF703FF07E0FFF7CEF8FF205B49F3
:101F70000870FEF790FF0CE0FEF74CFF042C07D131
:101F8000FFF7C2F8FF2055490870FEF784FF00E014
:101F90008AE700BFFF205149087070BD10B5FFF7F8
:101FA00069FF10BD10B5FFF768FBFFF70FFC10BD10
:101FB0002DE9F04100260025A8464F480078354914
:101FC00008706420FEF7EEFDFFF79EF84A48FFF721
:101FD0003DFAEFE0FEF71EFFFEF752FF04464048D1
:101FE0000078012800D1E6E0FE2C0DD108F10108AF
:101FF0006420FEF7D7FD41480068804504DBFFF709
:102000003CFB01264FF00008012E0FD1042C05D017
:10201000012C03D0032C01D0022C07D1FFF71FFBAA
:1020200000264FF47A70FEF7BDFDFE24022C1FD16E
:102030004FF000080025304840781649097888425A
:1020400005DD14480078401C1249087009E02A4850
:10205000407810490978884203D1274800780D4913
:102060000870FFF751F82448FFF7F0F9FEF7D2FEA9
:10207000032C50D14FF0000800251F484078054937
:10208000097888423CDD03480078401C014908700B
:102090003AE000002004002040020020B1000020AF
:1020A000AC000020C3DCC2EBB4EDCEF3A3A1000072
:1020B000C7EBD6D8D0C2CAE4C8EB0000202020204D
:1020C00000000000C3DCC2EBD5FDC8B7A3A100002F
:1020D000BFAACBF8D6D00000100801402104002090
:1020E000780000205E4D0008F05400083304002002
:1020F000010E000829000020B0580008B800002098
:10210000FE480078FE490870FEF7FEFFFB48FFF727
:102110009DF9FEF77FFE012C24D14FF00008002529
:10212000FEF7F2FFF6480078032804D14FF47A70E6
:10213000F449086010E0F2480078042804D14FF414
:102140009670F049086007E0ED480078052803D153
:102150004FF4FA70EB490860FF20EB490870FEF776
:102160009AFE28E046B9042C06D14FF00008681CFE
:10217000C5B26420FEF716FD1E2D0ADB0025E048DF
:102180000778FFF788FADE480770DC48FFF75EF94A
:1021900010E0042C0ED0002D0CDD142D0ADA4FF0C7
:1021A00000080025FEF7B0FFFF20D7490870FEF7B2
:1021B00072FE00E00EE700BFFF20D3490870BDE8C3
:1021C000F08110B5FFF7F4FE10BD2DE9F0410026B7
:1021D0000025A846CD480078C94908706420FEF75C
:1021E000E1FCFEF791FFC948FFF730F99EE0FEF7EA
:1021F00011FEFEF745FE0446C5480078012800D1CF
:1022000095E0FE2C0DD108F101086420FEF7CAFC10
:10221000BC480068804504DBFFF72FFA01264FF029
:102220000008012E0FD1042C05D0012C03D0032C63
:1022300001D0022C07D1FFF712FA00264FF47A7072
:10224000FEF7B0FCFE24022C1FD14FF00008002541
:10225000AE484078AA490978884205DDA848007848
:10226000401CA749087009E0A8484078A4490978AB
:10227000884203D1A5480078A1490870FEF744FFC1
:10228000A248FFF7E3F8FEF7C5FD032C19D14FF084
:10229000000800259D48407899490978884205DD65
:1022A00097480078401C9649087003E097480078EA
:1022B00093490870FEF728FF9448FFF7C7F8FEF728
:1022C000A9FD012C0AD14FF000080025FEF71CFFE4
:1022D000FF208D490870FEF7DEFD28E046B9042C8A
:1022E00006D14FF00008681CC5B26420FEF75AFC06
:1022F0001E2D0ADB002582480778FFF7CCF98048BD
:1023000007708248FFF7A2F810E0042C0ED0002DD1
:102310000CDD142D0ADA4FF000080025FEF7F4FE5C
:10232000FF2079490870FEF7B6FD00E05FE700BFC7
:10233000FF2075490870BDE8F08110B5FFF745FF33
:1023400010BDF8B505460E46144618E07F2D03DD96
:10235000002506F11000C6B23F2E04DD0020054620
:102360000646FEF7D1FE0120009022781023314668
:102370002846FEF7ADFF05F10800C5B2641C2078C1
:102380000028E3D1F8BD08B501211820FEF743F875
:102390004020ADF8000010208DF8030003208DF8D8
:1023A000020069465B48FDF70DFF6420FEF7FAFB6B
:1023B0000021AE20FEF763FE0021D520FEF75FFE70
:1023C00000215020FEF75BFE0021A820FEF757FEFB
:1023D00000213F20FEF753FE0021D320FEF74FFEE1
:1023E00000210846FEF74BFE00214020FEF747FE85
:1023F00000218D20FEF743FE00211420FEF73FFE52
:1024000000212020FEF73BFE00210220FEF737FED0
:102410000021A120FEF733FE0021C020FEF72FFE91
:102420000021DA20FEF72BFE00211220FEF727FE06
:1024300000218120FEF723FE0021EF20FEF71FFE82
:102440000021D920FEF71BFE0021F120FEF717FE28
:102450000021DB20FEF713FE00213020FEF70FFEE7
:102460000021A420FEF70BFE0021A620FEF707FEA8
:102470000021AF20FEF703FEFEF746FE08BD00B5C3
:1024800087B001218803FDF7D3FF01210820FDF764
:10249000C2FF4FF46040ADF8040003208DF8060041
:1024A00018208DF8070001A91A48FDF78BFE4FF49C
:1024B0000070ADF8040003208DF8060010208DF8A0
:1024C000070001A91348FDF77DFE4FF40071114884
:1024D000FDF703FF0020ADF808004FF48270ADF85F
:1024E0000A000020ADF80C000220ADF80E0001201B
:1024F000ADF810004002ADF812000DE0B058000831
:1025000020040020B800002021040020905A000878
:1025100078000020000C01400020ADF81400ADF858
:1025200016000720ADF8180002A90448FEF7DDF8F0
:1025300001210248FEF7F7F807B000BD003800405F
:1025400010B5A848806940F00400A6498861A648F3
:102550000068A6490840A449086008460068A449E4
:102560000843A1490860A0480C30006840F01C00F6
:102570009D490C31086000F064F910BD10B50024CD
:1025800000209C4908604FF0050000F039F9FF2059
:1025900000F036F9044601209749C1F88801204629
:1025A00010BD10B50020934908604FF0060000F000
:1025B00027F901209049C1F8880110BD10B5002409
:1025C00000208C4908604FF0900000F019F90020BD
:1025D00000F016F9002000F013F9002000F010F9C7
:1025E000FF2000F00DF944EA0024FF2000F008F974
:1025F000044301208049C1F88801204610BD2DE91F
:10260000F04106460C46174600207A4908604FF014
:10261000030000F0F5F8C4F3074000F0F1F8C4F34C
:10262000072000F0EDF8E0B200F0EAF8002505E040
:10263000FF2000F0E5F87055681C85B2BD42F7DB5D
:1026400001206C490860BDE8F08110B500BFFFF7BC
:1026500095FF10F0010FFAD110BD2DE9F0410646AB
:102660000C461746FFF79DFF0020624908604FF0B7
:10267000020000F0C5F8C4F3074000F0C1F8C4F34D
:10268000072000F0BDF8E0B200F0BAF8002504E041
:10269000705D00F0B5F8681C85B2BD42F8DB012022
:1026A00054490860FFF7D1FFBDE8F0812DE9F04102
:1026B00007460E461446F0B2C0F58075AC4200DC09
:1026C000254612E02A4631463846FFF7C6FFAC429F
:1026D00000D10BE02F442E44601B84B2B4F5807F00
:1026E00002DD4FF4807500E02546EBE700BFBDE852
:1026F000F08110B504462403FFF753FFFFF7A5FF51
:1027000000203C4908604FF0200000F079F8C4F345
:10271000074000F075F8C4F3072000F071F8E0B24C
:1027200000F06EF801203449C1F88801FFF78DFFF1
:1027300010BD2DE9F04781460F4616464FEA17387F
:10274000C7F30B0ACAF58054A64200DC344644E0C5
:102750004FEA08314FF480522848FFF750FF002518
:1027600008E00AEB05002549085CFF2800D003E0DB
:10277000681C85B2A542F4DB00BFA54216DA4046CC
:10278000FFF7B7FF002507E019F8050005EB0A0180
:102790001A4A5054681C85B2A542F5DB4FEA08314D
:1027A0004FF480521548FFF781FF04E02246394676
:1027B0004846FFF77BFFA64200D10FE008F1010871
:1027C0004FF0000AA1442744301B86B2B6F5805F63
:1027D00002DD4FF4805400E03446B9E700BFBDE8A5
:1027E000F08700000010024000080140FF00F0FFE9
:1027F0000033030088012142000021429708002095
:102800000246002105E0481CC1B2C82901DD0020B4
:1028100070473448008910F0020FF4D031488281AB
:10282000002105E0481CC1B2C82901DD0020EFE706
:102830002C48008910F0010FF4D02A488089C0B2DA
:10284000E6E700B52848806940F004002649886121
:102850000846806940F48050886124480068C0F3CD
:1028600013002249086008460068214908431F49AF
:1028700008601E480C30006840F0E0001B490C3135
:10288000086018480088174908800846008840F406
:10289000007008800846008840F480700880084670
:1028A000008840F004000880084600880880084638
:1028B000008840F0020008800846008840F00100CF
:1028C00008800846008840F03800088008460088E4
:1028D00008800846008840F040000880FF20FFF78D
:1028E0008FFF00BD00300140001002400008014091
:1028F0000000B0BB10B5002200E0521C835C8C5C71
:10290000A34201D1002BF8D1D8B2E1B2401A10BDD8
:10291000034611F8012B00F8012B002AF9D11846C3
:10292000704730B50B46014600202022012409E003
:1029300021FA02F59D4205D303FA02F5491B04FA78
:1029400002F52844151EA2F10102F1DC30BD0000A1
:10295000064C074D06E0E06840F0010394E80700EC
:1029600098471034AC42F6D3FDF7E6FB705C0008E4
:10297000905C000870B501EB020410F8015B15F0E3
:10298000070301D110F8013B2A1106D110F8012BE1
:1029900003E010F8016B01F8016B5B1EF9D12B0706
:1029A00005D40023521E0FD401F8013BFAE710F8BA
:1029B000013B02F10202A1EB030303E013F8015B08
:1029C00001F8015B521EF9D5A142D6D3002070BD9B
:1029D0000FB4054B10B503A9044A029800F018F88B
:1029E00010BC5DF814FB00005D0C000838040020EA
:1029F00002E008C8121F08C1002AFAD170477047C8
:102A0000002001E001C1121F002AFBD17047000025
:102A10002DE9FF4F89B09A460446002597E0252806
:102A200033D10027641C4E49B84601222378203B4D
:102A300002FA03F0084202D00743641CF6E720784C
:102A40002E2819D114F8010F47F004072A280ED0B8
:102A50006FF02F022078A0F1300109290CD808EB83
:102A6000880102EB410100EB0108641CF2E70A98BF
:102A7000641C50F8048B0A90207800286BD06428DE
:102A800008D0692806D0752820D052460B99904767
:102A90006D1C5BE00A994FF00A0901C90A910028F0
:102AA00004DAC0F100004FF02D0102E0390504D531
:102AB0002B218DF82010012103E0F90704D02021FB
:102AC000F7E78B4608AE0EE00021FAE70A994FF0CF
:102AD0000A0901C90A91F7E74946FFF722FF01F108
:102AE000300106F8011D0028F6D1ADEB060000F11B
:102AF0002009780701D44FF00108C84502DDA8EB92
:102B0000090000E000208046002706E008A85246A1
:102B1000C05D0B9990476D1C7F1C5F45F6DB04E0A0
:102B2000302052460B9990476D1CB8F10001A8F176
:102B30000108F5DC05E016F8010B52460B999047A9
:102B40006D1CB9F10001A9F10109F4DC641C2078C5
:102B500000287FF464AF0DB02846BDE8F08F000078
:102B6000092801004D696E6953544D33322053508A
:102B700049205445535400000000000000000000AC
:102B800000000000000000003F40000000000000C6
:102B900000003000400030004000000009000BC081
:102BA0003D000BC03D00090018C024407FE02240DA
:102BB00031800000180024C01B000D8032400180CD
:102BC00003801C4027401C8007400040100060002C
:102BD00000000000000000000000000000001F8056
:102BE000204040200000402020401F8000000000C6
:102BF000090006001F800600090000000400040010
:102C00003F8004000400000000100060000000008D
:102C100000000000040004000400040004000000A0
:102C2000000000400000000000000000002001C083
:102C300006003800400000001F8020402040204057
:102C40001F800000000010403FC000400000000056
:102C500018C021402240244018400000108020402D
:102C6000244024401B80000002000D0011003FC0E2
:102C7000014000003C802440244024402380000088
:102C80001F80244024403440038000003000200096
:102C900027C03800200000001B802440244024402E
:102CA0001B8000001C0022C0224022401F80000028
:102CB00000000000084000000000000000000000CC
:102CC0000460000000000000000004000A00110081
:102CD00020804040090009000900090009000000A7
:102CE00000004040208011000A000400180020006D
:102CF00023402400180000001F8020402740294066
:102D00001F400000004007C039000F0001C0004014
:102D100020403FC0244024401B8000001F802040F2
:102D2000204020403080000020403FC02040204014
:102D30001F80000020403FC024402E4030C00000D3
:102D400020403FC024402E00300000000F001080C3
:102D5000204022403380020020403FC00400040095
:102D60003FC02040204020403FC020402040000085
:102D70000060202020203FC02000200020403FC0D5
:102D800024400B0030C0204020403FC02040004085
:102D9000004000C03FC03C0003C03C003FC00000FA
:102DA00020403FC00C4023003FC020001F80204037
:102DB000204020401F80000020403FC024402400CD
:102DC000180000001F802140214020E01FA00000CB
:102DD00020403FC02440260019C0004018C02440B5
:102DE0002440224031800000300020403FC020407D
:102DF0003000000020003F80004000403F80200065
:102E000020003E0001C0070038002000380007C045
:102E10003C0007C038000000204039C0060039C01F
:102E2000204000002000384007C03840200000004B
:102E3000304021C02640384020C000000000000083
:102E40007FE0402040200000000070000C00038064
:102E5000004000000000402040207FE00000000013
:102E600000002000400020000000000000100010C2
:102E700000100010001000100000000040000000D2
:102E800000000000000002800540054003C0004033
:102E900020003FC004400440038000000000038085
:102EA0000440044006400000000003800440244029
:102EB0003FC0004000000380054005400340000083
:102EC000000004401FC0244024402000000002E015
:102ED000055005500650042020403FC00440040027
:102EE00003C000400000044027C000400000000074
:102EF00000100010041027E00000000020403FC038
:102F00000140070004C00440204020403FC0004072
:102F10000040000007C0040007C0040003C0000018
:102F2000044007C00440040003C0004000000380C8
:102F30000440044003800000041007F004500440E3
:102F400003800000000003800440045007F00010DC
:102F5000044007C0024004000400000000000640D6
:102F60000540054004C00000000004001F8004402C
:102F700000400000040007800040044007C00040FB
:102F80000400070004C0018006000400060001C020
:102F9000070001C006000000044006C0010006C092
:102FA000044000000410071004E001800600040043
:102FB0000000044005C0064004400000000000007E
:102FC00004007BE040200000000000000000FFF053
:102FD00000000000000040207BE004000000000032
:102FE0004000800040002000200040000000000061
:102FF00000000000000000000000000000000000D1
:1030000000001FCC000C00000000000000000800C1
:10301000300060000800300060000000022003FC67
:103020001E20022003FC1E200220000000000E18BB
:1030300011043FFF10840C78000000000F00108482
:103040000F3800C0077818840078000000780F84DB
:1030500010C411240E9800E40084000808006800E1
:1030600070000000000000000000000000000000F0
:10307000000007E018182004400200000000400291
:103080002004181807E00000000000000240024081
:1030900001800FF0018002400240000000800080AB
:1030A00000800FF800800080008000000001000D0B
:1030B000000E000000000000000000000000008082
:1030C0000080008000800080008000800000000CF4
:1030D000000C0000000000000000000000000006DE
:1030E000001800600180060018002000000007F0B2
:1030F000080810041004080807F000000000080485
:1031000008041FFC000400040000000000000E0C76
:1031100010141024104411840E0C000000000C1830
:1031200010041104110412880C700000000000E06B
:103130000320042408241FFC0024000000001F9822
:10314000108411041104108810700000000007F0B2
:1031500008881104110418880070000000001C0089
:10316000100010FC13001C001000000000000E38BE
:1031700011441084108411440E3800000000070030
:10318000088C10441044088807F00000000000007C
:103190000000030C030C0000000000000000000011
:1031A0000001010600000000000000000000008097
:1031B0000140022004100808100400000220022030
:1031C0000220022002200220022000000000100441
:1031D00008080410022001400080000000000E00DA
:1031E0001200100C106C10800F00000003E00C188F
:1031F00013E4142417C4082807D000000004003C7E
:1032000003C41C40074000E4001C000410041FFC21
:103210001104110411040E880070000003E00C1862
:1032200010041004100410081C10000010041FFCEF
:10323000100410041004080807F0000010041FFC1C
:103240001104110417C410040818000010041FFC16
:103250001104110017C010000800000003E00C1852
:103260001004100410441C780040000010041FFCDF
:1032700010840080008010841FFC100400001004E3
:1032800010041FFC100410040000000000030001E3
:10329000100110011FFE10001000000010041FFCA0
:1032A000110403801464181C1004000010041FFC97
:1032B0001004000400040004000C000010041FFCB3
:1032C0001F0000FC1F001FFC1004000010041FFC66
:1032D0000C04030000E010181FFC100007F00808A1
:1032E000100410041004080807F0000010041FFC6C
:1032F00010841080108010800F00000007F0081864
:1033000010241024101C080A07F2000010041FFCEF
:103310001104110011C011300E0C000400000E1C2D
:1033200011041084108410441C3800001800100090
:1033300010041FFC100410001800000010001FF8FB
:1033400010040004000410041FF8100010001E00F8
:1033500011E0001C007013801C0010001FC0103C06
:1033600000E01F0000E0103C1FC000001004180C1B
:10337000163401C001C01634180C100410001C00D3
:10338000130400FC13041C00100000000804101CAF
:103390001064108413041C041018000000000000C6
:1033A00000007FFE400240024002000000003000AA
:1033B0000C0003800060001C0003000000004002BD
:1033C000400240027FFE00000000000000000000FC
:1033D00020004000400040002000000000010001EB
:1033E0000001000100010001000100010000400097
:1033F00040002000000000000000000000000098D5
:10340000012401440144014400FC000410001FFC9D
:1034100000880104010400880070000000000070B2
:10342000008801040104010400880000000000700D
:1034300000880104010411081FFC0004000000F8CA
:10344000014401440144014400C80000000001049B
:1034500001040FFC1104110411001800000000D633
:1034600001290129012901C90106000010041FFCDE
:10347000008401000100010400FC000400000104BC
:10348000190419FC000400040000000000000003FF
:1034900000010101190119FE0000000010041FFCC9
:1034A0000024004001B4010C0104000000001004DD
:1034B00010041FFC0004000400000000010401FCD3
:1034C0000104010001FC0104010000FC010401FCF5
:1034D000008401000100010400FC0004000000F869
:1034E000010401040104010400F80000010101FFCE
:1034F00000850104010400880070000000000070D5
:10350000008801040104010501FF00010104010418
:1035100001FC00840104010001800000000000CCD7
:10352000012401240124012401980000000001006D
:10353000010007F80104010400000000010001F887
:10354000000400040004010801FC000401000180E3
:103550000170000C001001600180010001F0010CFD
:10356000003001C00030010C01F001000000010436
:10357000018C00740170018C0104000001010181C3
:103580000171000E0018016001800100000001843B
:10359000010C013401440184010C00000000000012
:1035A0000000000001003EFC40024002000000005C
:1035B00000000000FFFF00000000000000004002CB
:1035C00040023EFC0100000000000000000060001E
:1035D0008000800040004000200020000000001813
:1035E000244242424242424224180000000000109D
:1035F0007010101010101010107C00000000003C23
:103600004242420404081020427E00000000003CB8
:103610004242041804020242443800000000000440
:103620000C14242444447E04041E00000000007E88
:103630004040405864020242443800000000001C30
:103640002440405864424242241800000000007E9A
:103650004444080810101010101000000000003C36
:103660004242422418244242423C0000000000181A
:1036700024424242261A0202243800000040404000
:1036800030FE030000080410046007820001FFFE02
:103690000E00058008601010000800000001008185
:1036A00003021C040008003000C0FF0000C000300E
:1036B00002080404180200010001000002002200B8
:1036C0002A002AFF2AA82AA82AA8FEA82AA82AAAE5
:1036D0002AA92AFE2A002200020000000200020499
:1036E000420E4214422442C443044204420442248F
:1036F0004214420C420702000200000000000000D9
:103700001FF81110111011101110FFFE11111111DD
:10371000111111111FF90001000F000001004100FB
:103720004100410041004102410147FE450049007E
:103730005100610041000100010000002008241038
:10374000226021802641393202040C18F060138077
:103750001060101814041802000100000200020298
:10376000420433F8000400023FF2202240420002EB
:103770003FFE204220223FC200020000020102015F
:10378000420222041A1803E00200FE00020003FCB9
:103790000A02120262020202021E000000001FF86A
:1037A00000000000FFFF0200040018FEF0841884EF
:1037B00016FC1084108410FE100000001020102051
:1037C00010201040FC48248425FE2482240048FC5C
:1037D000288410842884448480FC00840000000035
:1037E00000000000000000000000000000000000D9
:1037F00000000000000000000000000004800880BD
:103800003480E7FE248424890002000C7FF04440C9
:103810004440444244417FFE00000000D4BF010107
:1038200001067D38550455FE55227D2201220002F5
:103830007FE202120412081210F200020000B3D755
:1038400002000200420033FC00090211050279C2A5
:1038500041344108411479620582040104010000E9
:10386000C9E80002E802A802ABFEAAAAEAAAAAAA2C
:10387000BEAAAAAAEAAAAAAAABFEA802E802000265
:103880000000D6C3000420042004200420042004E7
:1038900020043FFC200420042004200420042004F1
:1038A00000040000B9A40010001000117FF24A9437
:1038B0004A984A904A904A904A984A947FF2001156
:1038C000001000100000BEDF2040218027FE3A08D3
:1038D000220823FC0401080617F8E490249027FC32
:1038E0002C92349107FE0000C8B708013002220470
:1038F000227822042202A20263FE22222222222213
:1039000022222222280230020000B6A840104018CD
:103910007FF04910491049207FFF402060213F027D
:1039200020E4201820E43F0200010000C8A1082084
:103930000620403E30C00300000047FF3490049052
:10394000FC900492149167FE000000000000CFFB81
:10395000082008C00B00FFFF09000A8204220A1A8F
:103960003282C27232060A1A04E202020202000025
:10397000BCEC02022202240225FA295231522152C1
:10398000FF5221523152295225FA24022202020208
:103990000000B2E9048008803480E7FE2484248893
:1039A000000147F234040408FDF00408140467F22F
:1039B00000010000CBF80010001000117FF24A94C3
:1039C0004A984A904A904A904A984A947FF2001145
:1039D000001000100000BEDF000200822084288852
:1039E000269020A030C02DFF40C040A04290CC883F
:1039F0004084008200020000B2C92040218027FEDE
:103A00003A08220823FC000040104F1041104110DA
:103A100041127F11010201FC0000C2EB0081008114
:103A2000088288826884088808B00FC008B00888B7
:103A30002884C8820882008100810000B9D808204B
:103A400008C00B00FFFF090008C100067FF8400016
:103A5000400040007FFC00020002001E0000BBFA94
:103A600002000202420433F800040A0A723213C24E
:103A70001202FE0213F2120A120A023A00020000B7
:103A8000D1A108420841FFFE0880000041086148BA
:103A900052484A4845FF4A485248614801080100D7
:103AA0000000D4F102000202420433F80004001ABC
:103AB0003FE2240A251224A2444244A2C512460A27
:103AC00000020000B7B5000000007FFE4004400483
:103AD0004FE44824482448244FE4400440047FFE37
:103AE000000000000000BBD80200420033FE0004CA
:103AF000000822002AFF2AA82AA8FEA82AAA2AA982
:103B00002AFE220002000000C7EB11901698F890E0
:103B100013FF10A0080013FF2A484A498BFF4800F2
:103B200029FA10010BFE08000000CAE4000100029F
:103B300000040008003080C047003800070000C0C3
:103B40000030000C0002000100010000C8EB08403A
:103B50003140225E2082278220C2A942657E224215
:103B60002442284221C2221F290030000000C3DC69
:103B70002040218027FE3A08220823FC0000401044
:103B80004F104110411041127F11010201FC000051
:103B9000C2EB008100820084FEB8928492829281FE
:103BA00092FF929192919291FE91009100810081F9
:103BB0000000CAC7008040804100413F42224422A9
:103BC00048225FA2602244224422423F4200410038
:103BD00000800000B7F1010041014102410C7FF07B
:103BE000410041004100410041007FFF4100410090
:103BF000410001000000BFAA048008803480E7FE75
:103C000024842488000147F234040408FDF00408E9
:103C1000140467F200010000CBF8000000000FF070
:103C20000820082008200820FFFF0820082008207E
:103C300008200FF0000000000000D6D002000200B3
:103C4000420033FE0004000804112451253224945C
:103C5000FC1825F02418251406130000B6C1010035
:103C600041014102410C7FF041004100410041000F
:103C700041007FFF41004100410001000000BFAA58
:103C8000080208440FA8F81008680F84000002001A
:103C9000077F1A42E24202420A42067F0300000006
:103CA000CABC0002000C7FF0482049214D264BF889
:103CB0004920492049204BFF4D2079200020000059
:103CC0000000C6C10080010006001FFFE00400885C
:103CD0007C9044A044C047FF44C044A07C9000882E
:103CE00000040000B1A3002120C120822E842AB844
:103CF0002AA0AAA06AA02AA02AA02ABE2E812081DA
:103D000020A100C70000C1C10002000C3FF1240146
:103D1000242124323FAAA4A464A424A43FAA2432C8
:103D20002401240120010000B6C80081008108821E
:103D300088826884088808B00FC008B00888288482
:103D4000C8820882008100810000B9D80200020008
:103D5000420042004200420242017FFE4200420015
:103D6000420042004200020002000000D3DA2410A8
:103D7000246025807FFFC4804460008103011C0211
:103D80000002FFE40008103008C006000000C3EB8A
:103D900000017FFE04800480FCFF040100063FF860
:103DA0002401278224644418C4644782000100006F
:103DB000B0E6000808100820084008900B100C100E
:103DC000FFFF0C100B100890084008200810000896
:103DD0000000B1BE04020403247E2402240225FC58
:103DE000244424440404FFC004304408340404027E
:103DF000041F0000CEE408200620403E30C003012E
:103E000040017802470440C8403040C84704780267
:103E1000000100010000BABA4000400047FF4442E0
:103E200044424C425442644244424442444244422A
:103E300047FF400040000000B0D902000202020427
:103E4000FAF0AA90AA92AA91AE9EAA90AA90AA90DD
:103E5000FAF00204020202000000BEB02410246046
:103E600025807FFFC50044800020442033200020AF
:103E70000020FFFF0040004000400000BFC60820B7
:103E800008220841FFFE088009011001110211C239
:103E90001134FF0811141162118110010000BCBC23
:103EA0000000000047FC4102410241024102410280
:103EB0004102410241027F020002001E0000000098
:103EC000D2D1082008220841FFFE08800B01524190
:103ED0004E72624A5A44424A86528A61B2010301D2
:103EE0000000CADA082008C00B00FFFF090008C163
:103EF00040017802470440C8403040C84704780277
:103F000000010000C8A801040104110811101120CB
:103F100011401180FFFF1180114011201110110874
:103F2000010401040000CEB402800C80F7FE24845A
:103F30002688120012FFFE92129212921292FE92A4
:103F400012FF120002000000B4ED0200420033FE36
:103F500000040029012179224924492849F04928EF
:103F600049247922012100210000CEF30802080231
:103F7000280A2BEA2AAA2AAA2AAA3FFE4AAA4AAA59
:103F80004AAACBEA480A080208020000D6D802046E
:103F900022482A52A64163FE26402A5022490006A2
:103FA0003FF82200220023FF420002000000D0C29E
:103FB00000024002400243FE4002400240027FFEF7
:103FC000410241024102410241024002000200005E
:103FD000D5FD10401080910057FF1880116100023C
:103FE000200420183FE02002200120023FFC0000B6
:103FF0000000B3F5080208440FA8F81008680F8401
:1040000000000200077F1A42E24202420A42067F93
:1040100003000000CABC0080010006001FFFE00092
:10402000002000400080FFFC02020402080210028F
:104030002002001E0000BBAF0201420233FC00025E
:10404000000147FF4491549154914FFD5491649560
:10405000449307FD00010000CDA800800100060088
:104060001FFFE00000002000249F2492A49264928D
:1040700024922492249F20000000D0C504440CE622
:104080003544C648044818481000127F12421242B4
:10409000FE4212421242127F10000000BDE12002D7
:1040A000200227E42444244824502460FFFF246095
:1040B00024502448244427E4200220020000CAF8A7
:1040C000010041014102410C7FF0410041004100EB
:1040D000410041007FFF410041004100010000001C
:1040E000BFAA1FF0101010101FF0101010101FF0BA
:1040F0000000FFFE0100110011F811002900450029
:1041000083FECAC700007FFC008001000300056039
:1041100009183104C10200001FF010101010101017
:104120001FF01010B7F1001000F83F00020011104E
:104130000910082001007FFC0380054009201110B0
:104140002108C1060100B2C9000001F8FC081008EE
:10415000108820883C8864FE6402A402240225FAA8
:104160003C02240220140008C2EB0000FF8022FC65
:1041700022443E44224422443E442228222827A8A6
:10418000FA104210022802440282C8A100402248CC
:1041900011481150804043F84A080A0813F81208E1
:1041A000E20823F82208220822280210CFFB004050
:1041B0000040FC7C1084110822FE3C92649264FE54
:1041C000A492249224FE3C922512210A0204C8B72C
:1041D000020001007FFE4002800400003FF8010061
:1041E0000100110011F811001100290047FE8000A4
:1041F000B6A800003FF8200820083FF8241022202D
:104200002FF8222022203FFC22204220442084201C
:104210000820C6C108000BF80A081208120833F873
:104220003040504097FC10E011501248144418429E
:1042300010401040B1A3000800087C08440845FE67
:10424000440844087C0844884448444844087C089E
:10425000440800280010CAB10800081008200840CF
:10426000088009000800FFFE0A00090008800840D5
:1042700009200A180C060800B3A4020001007FFC04
:1042800000001FF010101FF000007FFE40028FE4BE
:104290000820082010222022C01EC1C10100008079
:1042A0003FFE222022203FFC2220222023E020006B
:1042B0002FF02410422041C08630380EB6C80000CE
:1042C0007FFC410441045FF4410441044FE448246D
:1042D000482448244FE4482440047FFC4004B9CCDF
:1042E000082008200920112011FC322032205420FF
:1042F000902017FE102010201020102010201020D9
:10430000BCFE0000FFFE010001003FF8210821086B
:104310003FF8210821083FF811000A00060019C0E3
:10432000E03EB8FC100008047F78004022401440B2
:10433000FF7E084808487F4808482A484948888836
:1043400028881108D0C210100810082000003FF87B
:10435000010001000100FFFE010002800280044014
:1043600008203018C006B9D800003FF8010001004D
:1043700001000100FFFE0100010001000100010039
:104380000100010005000200D3DA0050004800409F
:104390003FFE2040204020443E4422442228222840
:1043A00022122A32444A40868102B3C900400040AA
:1043B0000040FE4011FC104410441044104410848E
:1043C00010841E84F104410402280410B9A60008D8
:1043D000203C13C01200020003FCF20412881250A9
:1043E0001220125014881504280047FE0000B7B5AB
:1043F00000003FF82008200827C824482448244803
:104400002448244827C8200820083FF82008000036
:10441000BBD80100010001003FF8010001000100CC
:10442000FFFE03800540092011102108C10601008C
:104430000100CEB400003FF000100010001020106A
:1044400020103FF020002000200020042004200441
:104450001FFC0000D2D1101C13E010841244FD4850
:10446000111017FE1402180033F8D108111010A013
:10447000104051B0260ECADA100013FC11041104CA
:10448000FD041088308838885450545090201020F3
:104490001050108811041602C8A8102010202020E7
:1044A00027FE4420F82011FC20004000FDFC4104C0
:1044B00001041D04E10441FC0104BDE1010001000F
:1044C000FFFE010001003FF82108210821083FF804
:1044D0002388054009203118C1060100CAF8204090
:1044E0003F7E4890850801003FF801000100FFFE73
:1044F000000000207FFC0820042004A00040B5C874
:1045000008400840104023FC4840084017FE301087
:10451000501097FE10101210111011101050102092
:10452000B4FD001000F83F000100FFFE01001FF085
:1045300011101FF011101FF001003FF80100FFFEE5
:104540000000D6D8100008047F78004022401440B4
:10455000FF7E084808487F4808482A484948888814
:1045600028881108D0C20040204017FE108000A00B
:104570000120F3FC10201020102017FE1020102026
:10458000282047FE0000C1AC1080104013FC100032
:10459000FD08109017FE1040184037FED088110813
:1045A0001090106051982604BDD3000021241124DE
:1045B000112402480248F490124812481124112490
:1045C00011241000280047FE0000D1B21040104016
:1045D00010A010A0FD10120835F63800548850487D
:1045E000924811501110102017FE1000BCEC010071
:1045F00001007FFC054009203118C1061FF0101092
:104600001FF010101FF010100000FFFE0000B2E9B4
:1046100000F87F0001003FF80200FFFE04000800E0
:104620001FF028104FF088100FF008100FF008103E
:10463000BFB4040004000FF01820644003801C7015
:10464000E00E1FF0111011101FF0111011101FF0CB
:104650001010B1B8081008780BC01040104030405E
:1046600030405FFE9040104010401040104010401D
:1046700017FC1000C8CE040004000FF0182024C05E
:1046800003000CC03230C20E1FF0021004100410E0
:10469000081010A02040CEF101000100028004406B
:1046A000082010102FE8C106010001001FF00100D2
:1046B000010001007FFC0000C8AB1000083E7FA293
:1046C000002421241228FFE4002400223F2221227A
:1046D000213421283F2021200020B2BF104010406B
:1046E00010401080FEFE1108128810887C8844500B
:1046F0004450442044507C8845040202B9CA00203A
:104700007DFC448848504BFE500049FC490445FC60
:10471000450445FC682053FE402040204020D5CF72
:1047200000007FFC0100010001000100110011F8F0
:10473000110011001100110011001100FFFE000016
:10474000D5FD0100111009207FFE40029FF41010DA
:104750001FF001003FF82108210821282110010045
:104760000100B3A304000200010001000100028067
:10477000028002800440044008200820101020100D
:1047800040088006C8EB02000200FFFE040004009F
:104790000FF0081018102FF0481088100FF00810B4
:1047A000081008500820D3D0020001007FFE40020C
:1047B00080041FF0000000007FFC0440044004401F
:1047C000084408441044603CCDEA005000480040D2
:1047D0003FFE2040204020443E44224422282228FC
:1047E00022122A32444A40868102B3C90040404026
:1047F00027FC204003F80040E7FE200023F82208B1
:1048000023F822082BF8320822280210C7EB204098
:1048100020A02110FA0825F6400053C49254FA54FF
:1048200013D41A54F25453D41244125412C8CAE482
:10483000020001007FFE40028224094028884B14B8
:104840001C10E7F001002108210821083FF80008AA
:10485000C3DC0808481C49E0490049007DFC41448C
:104860004144794449284928491049104A284A4472
:104870008C82B0E6004000503F4800480040FFFEF8
:104880000040044004402740242024222412278A88
:10489000F8064002CEE4000027F812081208820849
:1048A00041104910091010A010A0E040204020A0A5
:1048B000211022080C06BABA0000FFFE0100020017
:1048C00004003FF82008200820083FF820082008AE
:1048D000200820083FF82008B0D91FF010101FF062
:1048E00010101FF00100FFFE00001FF0101010104C
:1048F0001FF00100210845040200BEB01020102066
:10490000102013FEFC201020102015FC1884308885
:10491000D04810501020105051882606BCBC2110E1
:104920002110391027FC41107910AFFE2000FBF850
:104930002208220823F82A08320823F80208B4EDD6
:10494000000043F82208220803F80000E00027FCDA
:10495000204020402FFE204028A0311022080C06C5
:10496000CEF3001000F83F000100FFFE01001FF031
:1049700011101FF011101FF001003FF80100FFFEA1
:104980000000D6D800402240124013F804400040F6
:10499000F7FC11201120112012241224141C2800CD
:1049A00047FE0000D1A1200027F822082110F0A026
:1049B000204021B0264E3040E3F82040204027FC24
:1049C0002040A0404040D4F10840084808444844F2
:1049D00028402FFE08400840184028A0C8A0089092
:1049E000091009080A040C02D7B4010001007FFC79
:1049F0000100028004400A203118C0060100088826
:104A000048844812481287F00000CCAC000023F81C
:104A100010001000000007FCF04010801110120878
:104A200017FC12041000280047FE0000D4CB10A091
:104A30001090208025FE4510FB1015FC2110411020
:104A4000FDFC411001101D10E1FE41000100CEAC43
:104A5000100011F8210821084908F9F81108210867
:104A60004108F9F8410801081908E10847FE00006B
:104A7000D7E9000000000000000000000000000076
:104A8000FFFE000000000000000000000000000029
:104A90000000D2BB0000000000003FF80000000052
:104AA000000000000000000000000000FFFE000009
:104AB00000000000B6FE000000007FFC00000000C7
:104AC000000000003FF800000000000000000000AF
:104AD000FFFE00000000C8FD000000007FFC444411
:104AE00044444444444444444844483C50046004DE
:104AF00040047FFC40040000CBC400007FFC0200A7
:104B00000200020002003FF0041004100410041020
:104B1000081008100810FFFE0000CEE5020001009A
:104B2000008000800000FFFE000000000440042020
:104B3000081008081008200440040000C1F9020011
:104B40000200020002000200023C07C0FA0002005C
:104B50000200020002040204020401FC0000C6DF9D
:104B6000000000400440044004400440044004208D
:104B70000820082008101010100820082004400207
:104B8000B0CB04000400040004007FE004200420F3
:104B90000420082008200820102210222022401E75
:104BA0008000BEC5010001000100010001000100FC
:104BB000FFFE0100010001000100010001000100F1
:104BC00001000100CAAE10201220222023244AA88E
:104BD000F22013FC22204270FAA8432402201A205B
:104BE000E22043FE0000BCCC1020102021FC242039
:104BF0004420FBFE100220944050FD10409003FE24
:104C00001C28E04440820302D0F8014141417F4129
:104C1000414141417F41414101000001020CF0004E
:104C200000000000FF0000000000BFAA08020844C6
:104C30000FA8F81008680F8400000200077F1A42CE
:104C4000E24202420A42067F03000000CABC0000A2
:104C500000182442424242424242241800003000DE
:104C60000000107010101010101010107C00003197
:104C70000000003C4242420404081020427E000032
:104C8000320000003C424204180402024244380050
:104C90000033000000040C14242444447E04041E49
:104CA0000000340000007E4040405864020242444C
:104CB000380000350000001C244040586442424245
:104CC00024180000360000007E444408081010102C
:104CD0001010100000370000003C4242422418240B
:104CE0004242423C00003800000018244242422662
:104CF0001A02022438000039000000101018282879
:104D0000243C444242E7000041000000F84444448F
:104D1000784442424244F80000420000003E4242D1
:104D20008080808080424438000043000000F844C6
:104D30004242424242424244F8000044000000FC29
:104D4000424848784848404242FC00004500000084
:104D5000FC424848784848404040E0000046303136
:104D60003233343536373839414243444546000002
:104D7000030400000000000000000000000000002C
:104D80000000000000000000000000000000000023
:104D90000000000000000000000000000000000013
:104DA0003030200000000000000000000000000083
:104DB00000000000000000000000000000000000F3
:104DC00000000000000000000000000000000000E3
:104DD0003010D4BFB3D70000000000000000000076
:104DE00000000000000000000000000000000000C3
:104DF00000000000000000000000000000000000B3
:104E00000030B9A4BEDF0000000000000000000078
:104E10000000000000000000000000000000000092
:104E20000000000000000000000000008D190008D4
:104E30006030C9E8D6C30000000000000000000098
:104E40000000000000000000000000000000000062
:104E50000000000000000000000000001D1B000812
:104E60000000000000000000000000000000000042
:104E70000000000000000000000000000000000032
:104E80000000000000000000000000000000000022
:104E90000000000000000000000000000000000012
:104EA0000000000000000000000000000000000002
:104EB00000000000000000000000000000000000F2
:104EC00000000000000000000000000000000000E2
:104ED00000000000000000000000000000000000D2
:104EE00000000000000000000000000000000000C2
:104EF00000000000000000000000000000000000B2
:104F000000000000000000000000000000000000A1
:104F10000000000000000000000000000000000091
:104F20000000000000000000000000000000000081
:104F30000000000000000000000000000000000071
:104F40000000000000000000000000000000000061
:104F50000305000000000000000000000000000049
:104F60000000000000000000000000000000000041
:104F70000000000000000000000000000000000031
:104F80000030C8B7B6A80000000000000000000014
:104F90000000000000000000000000000000000011
:104FA0000000000000000000000000000000000001
:104FB0006030C8A1CFFB000000000000000000002E
:104FC00000000000000000000000000000000000E1
:104FD00000000000000000000000000000000000D1
:104FE0002410BCECB2E9CBF8BEDF000000000000EA
:104FF00000000000000000000000000000000000B1
:10500000000000000000000000000000131E000867
:105010001020B2C9C2EB0000000000000000000038
:105020000000000000000000000000000000000080
:105030000000000000000000000000009D1F0008AC
:105040005020B9D8BBFA00000000000000000000AA
:105050000000000000000000000000000000000050
:10506000000000000000000000000000251B0008F8
:105070000000000000000000000000000000000030
:105080000000000000000000000000000000000020
:105090000000000000000000000000000000000010
:1050A0000000000000000000000000000000000000
:1050B00000000000000000000000000000000000F0
:1050C00000000000000000000000000000000000E0
:1050D00000000000000000000000000000000000D0
:1050E00000000000000000000000000000000000C0
:1050F00000000000000000000000000000000000B0
:10510000000000000000000000000000000000009F
:10511000000000000000000000000000000000008F
:10512000000000000000000000000000000000007F
:10513000020300000000000000000000000000006A
:10514000000000000000000000000000000000005F
:10515000000000000000000000000000000000004F
:105160002310CAC7B7F1B9D8BBFA0000000000008D
:10517000000000000000000000000000000000002F
:10518000000000000000000000000000000000001F
:105190000030CAC70000000000000000000000004E
:1051A00000000000000000000000000000000000FF
:1051B0000000000000000000000000001B1E0008AE
:1051C0007030B7F100000000000000000000000097
:1051D00000000000000000000000000000000000CF
:1051E00000000000000000000000000000000000BF
:1051F00000000000000000000000000000000000AF
:10520000000000000000000000000000000000009E
:10521000000000000000000000000000000000008E
:10522000000000000000000000000000000000007E
:10523000000000000000000000000000000000006E
:10524000000000000000000000000000000000005E
:10525000000000000000000000000000000000004E
:10526000000000000000000000000000000000003E
:10527000000000000000000000000000000000002E
:10528000000000000000000000000000000000001E
:10529000000000000000000000000000000000000E
:1052A00000000000000000000000000000000000FE
:1052B00000000000000000000000000000000000EE
:1052C00000000000000000000000000000000000DE
:1052D00000000000000000000000000000000000CE
:1052E00000000000000000000000000000000000BE
:1052F00000000000000000000000000000000000AE
:10530000000000000000000000000000000000009D
:105310000202000000000000000000000000000089
:10532000000000000000000000000000000000007D
:10533000000000000000000000000000000000006D
:105340003010BFAACBF8D6D000000000000000004B
:10535000000000000000000000000000000000004D
:10536000000000000000000000000000000000003D
:105370003090B7B5BBD8000000000000000000006E
:10538000000000000000000000000000000000001D
:10539000000000000000000000000000A51F000841
:1053A00000000000000000000000000000000000FD
:1053B00000000000000000000000000000000000ED
:1053C00000000000000000000000000000000000DD
:1053D00000000000000000000000000000000000CD
:1053E00000000000000000000000000000000000BD
:1053F00000000000000000000000000000000000AD
:10540000000000000000000000000000000000009C
:10541000000000000000000000000000000000008C
:10542000000000000000000000000000000000007C
:10543000000000000000000000000000000000006C
:10544000000000000000000000000000000000005C
:10545000000000000000000000000000000000004C
:10546000000000000000000000000000000000003C
:10547000000000000000000000000000000000002C
:10548000000000000000000000000000000000001C
:10549000000000000000000000000000000000000C
:1054A00000000000000000000000000000000000FC
:1054B00000000000000000000000000000000000EC
:1054C00000000000000000000000000000000000DC
:1054D00000000000000000000000000000000000CC
:1054E00000000000000000000000000000000000BC
:1054F00003040000000000000000000000000000A5
:10550000000000000000000000000000000000009B
:10551000000000000000000000000000000000008B
:105520003000B6C1524649440000000000000000AF
:10553000000000000000000000000000000000006B
:10554000000000000000000000000000000000005B
:1055500020102000000000000000000000000000FB
:10556000000000000000000000000000000000003B
:10557000000000000000000000000000000000002B
:105580000030BFAACABC00000000000000000000FC
:10559000000000000000000000000000000000000B
:1055A00000000000000000000000000000000000FB
:1055B0006030B7B5BBD8000000000000000000005C
:1055C00000000000000000000000000000000000DB
:1055D0000000000000000000000000008D1900081D
:1055E00000000000000000000000000000000000BB
:1055F00000000000000000000000000000000000AB
:10560000000000000000000000000000000000009A
:10561000000000000000000000000000000000008A
:10562000000000000000000000000000000000007A
:10563000000000000000000000000000000000006A
:10564000000000000000000000000000000000005A
:10565000000000000000000000000000000000004A
:10566000000000000000000000000000000000003A
:10567000000000000000000000000000000000002A
:10568000000000000000000000000000000000001A
:10569000000000000000000000000000000000000A
:1056A00000000000000000000000000000000000FA
:1056B00000000000000000000000000000000000EA
:1056C00000000000000000000000000000000000DA
:1056D00003050000000000000000000000000000C2
:1056E00000000000000000000000000000000000BA
:1056F00000000000000000000000000000000000AA
:105700000030C8B7B6A8000000000000000000008C
:105710000000000000000000000000000000000089
:105720000000000000000000000000005716000804
:105730006030C8A1CFFB00000000000000000000A6
:105740000000000000000000000000000000000059
:1057500000000000000000000000000057160008D4
:105760001000C6C1B1A3C9E8D6C300000000000004
:105770000000000000000000000000000000000029
:10578000000000000000000000000000C32100082D
:105790001010C1C1B6C8C9E8D6C30000000000009F
:1057A00000000000000000000000000000000000F9
:1057B00000000000000000000000000000000000E9
:1057C0004020B9D8D3DA000000000000000000003B
:1057D00000000000000000000000000000000000C9
:1057E0000000000000000000000000003B23000853
:1057F00000000000000000000000000000000000A9
:105800000000000000000000000000000000000098
:105810000000000000000000000000000000000088
:105820000000000000000000000000000000000078
:105830000000000000000000000000000000000068
:105840000000000000000000000000000000000058
:105850000000000000000000000000000000000048
:105860000000000000000000000000000000000038
:105870000000000000000000000000000000000028
:105880000000000000000000000000000000000018
:105890000000000000000000000000000000000008
:1058A00000000000000000000000000000000000F8
:1058B00003050000000000000000000000000000E0
:1058C00000000000000000000000000000000000D8
:1058D00000000000000000000000000000000000C8
:1058E0000030C8B7B6A800000000000000000000AB
:1058F00000000000000000000000000000000000A8
:105900000000000000000000000000005716000822
:105910006030C8A1CFFB00000000000000000000C4
:105920000000000000000000000000000000000077
:1059300000000000000000000000000057160008F2
:1059400030003130C3EB0000000000000000000018
:105950000000000000000000000000000000000047
:105960000000000000000000000000000000000037
:1059700030103330C3EB00000000000000000000D6
:105980000000000000000000000000000000000017
:105990000000000000000000000000000000000007
:1059A00030203530C3EB0000000000000000000094
:1059B00000000000000000000000000000000000E7
:1059C00000000000000000000000000000000000D7
:1059D00000000000000000000000000000000000C7
:1059E00000000000000000000000000000000000B7
:1059F00000000000000000000000000000000000A7
:105A00000000000000000000000000000000000096
:105A10000000000000000000000000000000000086
:105A20000000000000000000000000000000000076
:105A30000000000000000000000000000000000066
:105A40000000000000000000000000000000000056
:105A50000000000000000000000000000000000046
:105A60000000000000000000000000000000000036
:105A70000000000000000000000000000000000026
:105A80000000000000000000000000000000000016
:105A900004040000000000000000000000000000FE
:105AA00000000000000000000000000000000000F6
:105AB00000000000000000000000000000000000E6
:105AC0000000B0E6B1BEA3BA56312E30000000008F
:105AD00000000000000000000000000000000000C6
