:020000040800F2
:1050000090060020355A0008495200084B5200080B
:105010004F52000853520008575200080000000089
:105020000000000000000000000000005B520008CB
:105030005D520008000000005F5200086152000845
:105040004F5A00084F5A00084F5A00084F5A00089C
:105050004F5A00084F5A00084F5A00084F5A00088C
:105060004F5A00084F5A00084F5A00084F5A00087C
:105070004F5A00084F5A00084F5A00084F5A00086C
:105080004F5A00084F5A00084F5A00084F5A00085C
:105090004F5A00084F5A00084F5A00084F5A00084C
:1050A0004F5A00084F5A00084F5A00084F5A00083C
:1050B0004F5A00084F5A00084F5A00084F5A00082C
:1050C0004F5A00084F5A00084F5A00084F5A00081C
:1050D0004F5A00084F5A00084F5A00084F5A00080C
:1050E0004F5A00084F5A00084F5A000800F002F8C3
:1050F00000F03AF80AA090E8000C82448344AAF138
:105100000107DA4501D100F02FF8AFF2090EBAE835
:105110000F0013F0010F18BFFB1A43F001031847EB
:10512000900B0000B00B0000103A24BF78C878C183
:10513000FAD8520724BF30C830C144BF04680C609D
:10514000704700000023002400250026103A28BFE5
:1051500078C1FBD8520728BF30C148BF0B607047E9
:105160001FB51FBD10B510BD00F06BFD1146FFF758
:10517000F7FF00F03AF800F089FD03B4FFF7F2FF03
:1051800003BC00F08DFD0000002107E0002200E0DC
:10519000521C42F210739A42FADB491C8142F5D349
:1051A000704710B50121242000F0DCFB4FF4807023
:1051B000224908801020C87003208870204800F021
:1051C0001FF94FF480711E4800F0C5F904201B49F7
:1051D00008801020C870032088701A4800F010F969
:1051E0000421184800F0B7F910BDFFF7DAFF4FF4BB
:1051F000A0414FF0006000F06DF81DE04FF48071A9
:105200000F4800F0AAF96420FFF7BEFF4FF4807149
:105210000B4800F0A0F96420FFF7B6FF042109480D
:1052200000F09BF96420FFF7AFFF0421054800F070
:1052300092F96420FFF7A8FFE0E7000000000020DB
:105240000008014000140140704700BFFEE700BFA6
:10525000FEE700BFFEE700BFFEE7704770477047FC
:105260007047000031490143314A1160704770B501
:10527000002100230F22C4780CB32D4C246804F4C1
:10528000E064C4F5E064210AC1F10403CA40447833
:1052900004FA03F18478144021430901254C06786F
:1052A000A155047804F01F050124AC4005786D1168
:1052B0004FF0E02606EB8505C5F8004109E00478CB
:1052C00004F01F050124AC401B4D0678761145F80B
:1052D000264070BD194A0A400243154B1B1F1A6035
:1052E000704739B1124A121D12680243104B1B1D40
:1052F0001A6006E00E4A121D126882430C4B1B1DF9
:105300001A607047042808D14FF0E021096941F084
:1053100004014FF0E022116107E04FF0E02109693C
:1053200021F004014FF0E022116170470000FA05FE
:105330000CED00E000E400E080E100E080FFFF1FF2
:1053400010B50446CA48844208D10121042000F067
:1053500023FB0021042000F01FFB46E0C5488442E7
:1053600008D10121082000F017FB0021082000F0DF
:1053700013FB3AE0C048844208D10121102000F01C
:105380000BFB0021102000F007FB2EE0BB488442FD
:1053900008D10121202000F0FFFA0021202000F098
:1053A000FBFA22E0B648844208D10121402000F0F7
:1053B000F3FA0021402000F0EFFA16E0B1488442F1
:1053C00008D10121802000F0E7FA0021802000F0C0
:1053D000E3FA0AE0AC48844207D10121801500F0CD
:1053E000DBFA0021A01500F0D7FA10BD10B501219D
:1053F000084600F0D1FA0021012000F0CDFA10BDDE
:105400002DE9F0410246002500260020002300245B
:10541000002791F803C00CF00F0591F803C01CF0B1
:10542000100F03D091F802C04CEA050591F800C0B6
:10543000BCF1000F31D0146800202BE04FF0010CBC
:105440000CFA00F3B1F800C00CEA03069E4220D12A
:1054500083004FF00F0C0CFA03F7BC4305FA03FC72
:105460004CEA040491F803C0BCF1280F06D14FF0B8
:10547000010C0CFA00FCC2F814C00AE091F803C059
:10548000BCF1480F05D14FF0010C0CFA00FCC2F83A
:1054900010C0401C0828D1D31460B1F800C0BCF182
:1054A000FF0F34DD546800202EE000F1080C4FF0AF
:1054B000010808FA0CF3B1F800C00CEA03069E429A
:1054C00021D183004FF00F0C0CFA03F7BC4305FA0F
:1054D00003FC4CEA040491F803C0BCF1280F05D189
:1054E00000F1080C08FA0CF8C2F8148091F803C017
:1054F000BCF1480F07D100F1080C4FF0010808FA81
:105500000CF8C2F81080401C0828CED35460BDE8C7
:10551000F0814FF6FF710180022181700421C1707A
:1055200070470246002093680B4201D0012000E042
:10553000002070470146886880B27047024600200C
:10554000D3680B4201D0012000E0002070470146E3
:10555000C86880B2704701617047416170470AB105
:10556000016100E041617047C16070474FF48032D3
:105570000A43826181618261826982697047024661
:105580000020424B18684FF68073184040EA021022
:1055900008433E4B186070473D49C8617047F0B5FD
:1055A0000A46002300240021002500F00046B6F141
:1055B000004F02D1354EF16901E0344E7168C0F3FD
:1055C000034583B200F44016B6F5401F08D121F020
:1055D00070612E4E766826F070662C4F7E6012E069
:1055E00000F48016B6F5801F06D1032606FA05F4EE
:1055F000A14341F0706106E0460D360103FA06F65C
:10560000B14341F0706122B1460D360103FA06F64E
:10561000314300F00046B6F1004F02D11B4EF1615C
:1056200001E01A4E7160F0BD30B500228B071C0FEF
:105630000F2303FA04F2154B08338C1053F824306F
:105640009343124C08348D1044F8253023468C10B7
:1056500053F824308C07240F00FA04F423430B4C36
:1056600008348D1044F8253030BD0A490860704771
:1056700000080140000C01400010014000140140EE
:1056800000180140001C01400020014000000140C2
:1056900000002042DC002042DB48006840F00100AE
:1056A000D949086008464068D8490840D64948604A
:1056B00008460068D6490840D34908600846006893
:1056C00020F4802008600846406820F4FE0048600E
:1056D0004FF41F0088607047CB49096821F480317E
:1056E000C94A11601146096821F480211160B0F5A2
:1056F000803F03D0B0F5802F0ED106E0C249096883
:1057000041F48031C04A116007E0BF49096841F4A3
:10571000A021BD4A116000E000BF00BF704710B576
:1057200001460022002300204A11012A02D1B64C72
:10573000236806E0022A02D1B34C236A01E0B24C8E
:10574000636A01F01F02012494401C4201D0012031
:1057500000E0002010BD70B500240025002600BF29
:105760003120FFF7DCFF0646641CB4F5A06F01D0C2
:10577000002EF5D03120FFF7D2FF08B1012500E05F
:105780000025284670BD014600209F4A106820F081
:10579000F80040EAC100106070479E4908607047F9
:1057A00002460020984B586820F47C1042EA01031E
:1057B0001843954B586070479649086670470146F4
:1057C0000020914A506820F0030008435060704761
:1057D0008D48406800F00C007047014600208A4A5E
:1057E000506820F0F00008435060704701460020E8
:1057F000854A506820F4E0600843506070470146D5
:105800000020814A506820F4605040EAC100506096
:10581000704729B17C4A527A02437B4B5A7204E0AA
:10582000794A527A8243784B5A7270477A490860B3
:10583000704701460020744A506820F440400843F5
:10584000506070470021754A11706F4A82F820102D
:10585000012802D0042808D103E001216F4A117009
:1058600004E005216D4A117000E000BF00BF7047E1
:105870006B49086070476449096A0143624A1162D2
:105880007047674944390860704730B500210022ED
:10589000002400235C4D6D6805F00C0121B1042942
:1058A00005D0082923D105E05E4D056022E05D4D5D
:1058B00005601FE0544D6D6805F47012524D6D681F
:1058C00005F48034022505EB92421CB9564D554330
:1058D00005600BE04C4D6D6815F4003F03D0524D50
:1058E0005543056002E04F4D5543056002E04D4DC4
:1058F000056000BF00BF444D6D6805F0F001090967
:105900004A4D6B5C0568DD4045603F4D6D6805F4B0
:10591000E061090A454D6B5C4568DD4085603A4DA4
:105920006D6805F46051C90A404D6B5C4568DD4007
:10593000C560354D6D6805F44041890B3C4D6B5C8D
:10594000C568B5FBF3F5056130BD29B12E4A526932
:1059500002432D4B5A6104E02B4A526982432A4B81
:105960005A61704729B1284A92690243264B9A61CD
:1059700004E0254A92698243234B9A61704729B11A
:10598000214AD2690243204BDA6104E01E4AD269FF
:1059900082431D4BDA61704729B11B4AD26802432A
:1059A000194BDA6004E0184AD2688243164BDA6079
:1059B000704729B1144A12690243134B1A6104E07B
:1059C000114A12698243104B1A61704714494039D9
:1059D000086070470F49C86470470B49C871704729
:1059E0000948406A40F080700749486270470146A4
:1059F0000020054A92680A4201D0012000E0002000
:105A00007047014988727047001002400000FFF89B
:105A1000FFFFF6FE00004242D80042422010024042
:105A20008004424200127A0000093D000500002077
:105A3000150000200948804709480047FEE7FEE7B7
:105A4000FEE7FEE7FEE7FEE7FEE7FEE7FEE7FEE72E
:105A500004480549054A064B704700003D5B0008B5
:105A6000ED500008900000209006002090020020D9
:105A70009002002000210020674A126842F4803220
:105A8000654B1A6000BF644A126802F40030491C7A
:105A900010B9B1F5A06FF6D15F4A126812F4003F59
:105AA00001D0012000E00020012842D15B4A1268A9
:105AB00042F01002594B1A601A46126822F0030293
:105AC0001A601A46126842F002021A60524A52687C
:105AD000514B5A601A4652685A601A46526842F44C
:105AE00080625A601A46526822F47C125A601A4642
:105AF000526842F4E8125A601A46126842F0807204
:105B00001A6000BF444A126812F0007FFAD0424A7D
:105B1000526822F00302404B5A601A46526842F023
:105B200002025A6000BF3C4A526802F00C02082A86
:105B3000F9D1704710B5FFF79DFF10BD10B536487D
:105B4000006840F001003449086008464068344964
:105B500008403149486008460068324908402E49EB
:105B600008600846006820F4802008600846406805
:105B700020F4FE0048604FF41F008860FFF7DAFF52
:105B80004FF000602849086010BD10B500210020CA
:105B90000022214B5B6803F00C0121B1042906D0DF
:105BA000082928D107E0214B214C236027E01F4B17
:105BB0001F4C236023E0184B5B6803F47010164BF6
:105BC0005B6803F48032022303EB904022B9194B47
:105BD0004343174C23600DE00F4B5B6813F4003F09
:105BE00004D0144B4343124C236003E00F4B434358
:105BF0000F4C236003E00D4B0D4C236000BF00BF32
:105C0000054B5B68C3F303130B4CE15C084B1B684B
:105C1000CB40074C236010BD001002400020024022
:105C20000000FFF8FFFFF6FE08ED00E000127A002A
:105C30001C00002000093D00200000207047704734
:105C40007047754600F028F8AE4605006946534691
:105C500020F00700854618B020B5FFF7F9FEBDE833
:105C600020404FF000064FF000074FF000084FF0C3
:105C7000000B21F00701AC46ACE8C009ACE8C00954
:105C8000ACE8C009ACE8C0098D4670470446AFF3E4
:105C900000802046FFF771FA00487047300000206E
:105CA00001491820ABBEFEE7260002007047000045
:105CB000D05C0008000000203000000028510008DF
:105CC000005D00083000002060060000445100081C
:105CD00000000000000000000001020304010203B4
:105CE00004060708090204060800000000A24A048E
:105CF000000000000000000001020304060708097C
:04000005080050EDB2
:00000001FF
